{"abi":[{"type":"constructor","inputs":[],"stateMutability":"nonpayable"},{"type":"function","name":"approve","inputs":[{"name":"to","type":"address","internalType":"address"},{"name":"tokenId","type":"uint256","internalType":"uint256"}],"outputs":[],"stateMutability":"nonpayable"},{"type":"function","name":"balanceOf","inputs":[{"name":"owner","type":"address","internalType":"address"}],"outputs":[{"name":"","type":"uint256","internalType":"uint256"}],"stateMutability":"view"},{"type":"function","name":"burn","inputs":[{"name":"tokenId","type":"uint256","internalType":"uint256"}],"outputs":[],"stateMutability":"nonpayable"},{"type":"function","name":"getApproved","inputs":[{"name":"tokenId","type":"uint256","internalType":"uint256"}],"outputs":[{"name":"","type":"address","internalType":"address"}],"stateMutability":"view"},{"type":"function","name":"isApprovedForAll","inputs":[{"name":"owner","type":"address","internalType":"address"},{"name":"operator","type":"address","internalType":"address"}],"outputs":[{"name":"","type":"bool","internalType":"bool"}],"stateMutability":"view"},{"type":"function","name":"mint","inputs":[{"name":"to","type":"address","internalType":"address"},{"name":"tokenId","type":"uint256","internalType":"uint256"}],"outputs":[],"stateMutability":"nonpayable"},{"type":"function","name":"name","inputs":[],"outputs":[{"name":"","type":"string","internalType":"string"}],"stateMutability":"view"},{"type":"function","name":"ownerOf","inputs":[{"name":"tokenId","type":"uint256","internalType":"uint256"}],"outputs":[{"name":"","type":"address","internalType":"address"}],"stateMutability":"view"},{"type":"function","name":"safeTransferFrom","inputs":[{"name":"from","type":"address","internalType":"address"},{"name":"to","type":"address","internalType":"address"},{"name":"tokenId","type":"uint256","internalType":"uint256"}],"outputs":[],"stateMutability":"nonpayable"},{"type":"function","name":"safeTransferFrom","inputs":[{"name":"from","type":"address","internalType":"address"},{"name":"to","type":"address","internalType":"address"},{"name":"tokenId","type":"uint256","internalType":"uint256"},{"name":"data","type":"bytes","internalType":"bytes"}],"outputs":[],"stateMutability":"nonpayable"},{"type":"function","name":"setApprovalForAll","inputs":[{"name":"operator","type":"address","internalType":"address"},{"name":"approved","type":"bool","internalType":"bool"}],"outputs":[],"stateMutability":"nonpayable"},{"type":"function","name":"supportsInterface","inputs":[{"name":"interfaceId","type":"bytes4","internalType":"bytes4"}],"outputs":[{"name":"","type":"bool","internalType":"bool"}],"stateMutability":"view"},{"type":"function","name":"symbol","inputs":[],"outputs":[{"name":"","type":"string","internalType":"string"}],"stateMutability":"view"},{"type":"function","name":"tokenURI","inputs":[{"name":"tokenId","type":"uint256","internalType":"uint256"}],"outputs":[{"name":"","type":"string","internalType":"string"}],"stateMutability":"view"},{"type":"function","name":"transferFrom","inputs":[{"name":"from","type":"address","internalType":"address"},{"name":"to","type":"address","internalType":"address"},{"name":"tokenId","type":"uint256","internalType":"uint256"}],"outputs":[],"stateMutability":"nonpayable"},{"type":"event","name":"Approval","inputs":[{"name":"owner","type":"address","indexed":true,"internalType":"address"},{"name":"approved","type":"address","indexed":true,"internalType":"address"},{"name":"tokenId","type":"uint256","indexed":true,"internalType":"uint256"}],"anonymous":false},{"type":"event","name":"ApprovalForAll","inputs":[{"name":"owner","type":"address","indexed":true,"internalType":"address"},{"name":"operator","type":"address","indexed":true,"internalType":"address"},{"name":"approved","type":"bool","indexed":false,"internalType":"bool"}],"anonymous":false},{"type":"event","name":"Transfer","inputs":[{"name":"from","type":"address","indexed":true,"internalType":"address"},{"name":"to","type":"address","indexed":true,"internalType":"address"},{"name":"tokenId","type":"uint256","indexed":true,"internalType":"uint256"}],"anonymous":false},{"type":"error","name":"ERC721IncorrectOwner","inputs":[{"name":"sender","type":"address","internalType":"address"},{"name":"tokenId","type":"uint256","internalType":"uint256"},{"name":"owner","type":"address","internalType":"address"}]},{"type":"error","name":"ERC721InsufficientApproval","inputs":[{"name":"operator","type":"address","internalType":"address"},{"name":"tokenId","type":"uint256","internalType":"uint256"}]},{"type":"error","name":"ERC721InvalidApprover","inputs":[{"name":"approver","type":"address","internalType":"address"}]},{"type":"error","name":"ERC721InvalidOperator","inputs":[{"name":"operator","type":"address","internalType":"address"}]},{"type":"error","name":"ERC721InvalidOwner","inputs":[{"name":"owner","type":"address","internalType":"address"}]},{"type":"error","name":"ERC721InvalidReceiver","inputs":[{"name":"receiver","type":"address","internalType":"address"}]},{"type":"error","name":"ERC721InvalidSender","inputs":[{"name":"sender","type":"address","internalType":"address"}]},{"type":"error","name":"ERC721NonexistentToken","inputs":[{"name":"tokenId","type":"uint256","internalType":"uint256"}]}],"bytecode":{"object":"0x60806040523480156200001157600080fd5b506040518060400160405280600a8152602001694d6f636b45524337323160b01b815250604051806040016040528060048152602001634d4f434b60e01b815250816000908162000063919062000122565b50600162000072828262000122565b505050620001ee565b634e487b7160e01b600052604160045260246000fd5b600181811c90821680620000a657607f821691505b602082108103620000c757634e487b7160e01b600052602260045260246000fd5b50919050565b601f8211156200011d576000816000526020600020601f850160051c81016020861015620000f85750805b601f850160051c820191505b81811015620001195782815560010162000104565b5050505b505050565b81516001600160401b038111156200013e576200013e6200007b565b62000156816200014f845462000091565b84620000cd565b602080601f8311600181146200018e5760008415620001755750858301515b600019600386901b1c1916600185901b17855562000119565b600085815260208120601f198616915b82811015620001bf578886015182559484019460019091019084016200019e565b5085821015620001de5787850151600019600388901b60f8161c191681555b5050505050600190811b01905550565b610fdc80620001fe6000396000f3fe608060405234801561001057600080fd5b50600436106100f55760003560e01c806342966c6811610097578063a22cb46511610066578063a22cb465146101ff578063b88d4fde14610212578063c87b56dd14610225578063e985e9c51461023857600080fd5b806342966c68146101b05780636352211e146101c357806370a08231146101d657806395d89b41146101f757600080fd5b8063095ea7b3116100d3578063095ea7b31461016257806323b872dd1461017757806340c10f191461018a57806342842e0e1461019d57600080fd5b806301ffc9a7146100fa57806306fdde0314610122578063081812fc14610137575b600080fd5b61010d610108366004610c4c565b61024b565b60405190151581526020015b60405180910390f35b61012a61029d565b6040516101199190610cb9565b61014a610145366004610ccc565b61032f565b6040516001600160a01b039091168152602001610119565b610175610170366004610d01565b610358565b005b610175610185366004610d2b565b610367565b610175610198366004610d01565b6103f7565b6101756101ab366004610d2b565b610401565b6101756101be366004610ccc565b610421565b61014a6101d1366004610ccc565b61042d565b6101e96101e4366004610d67565b610438565b604051908152602001610119565b61012a610480565b61017561020d366004610d82565b61048f565b610175610220366004610dd4565b61049a565b61012a610233366004610ccc565b6104b1565b61010d610246366004610eb0565b610526565b60006001600160e01b031982166380ac58cd60e01b148061027c57506001600160e01b03198216635b5e139f60e01b145b8061029757506301ffc9a760e01b6001600160e01b03198316145b92915050565b6060600080546102ac90610ee3565b80601f01602080910402602001604051908101604052809291908181526020018280546102d890610ee3565b80156103255780601f106102fa57610100808354040283529160200191610325565b820191906000526020600020905b81548152906001019060200180831161030857829003601f168201915b5050505050905090565b600061033a82610554565b506000828152600460205260409020546001600160a01b0316610297565b61036382823361058d565b5050565b6001600160a01b03821661039657604051633250574960e11b8152600060048201526024015b60405180910390fd5b60006103a383833361059a565b9050836001600160a01b0316816001600160a01b0316146103f1576040516364283d7b60e01b81526001600160a01b038086166004830152602482018490528216604482015260640161038d565b50505050565b6103638282610693565b61041c8383836040518060200160405280600081525061049a565b505050565b61042a816106f8565b50565b600061029782610554565b60006001600160a01b038216610464576040516322718ad960e21b81526000600482015260240161038d565b506001600160a01b031660009081526003602052604090205490565b6060600180546102ac90610ee3565b610363338383610733565b6104a5848484610367565b6103f1848484846107d2565b60606104bc82610554565b5060006104d460408051602081019091526000815290565b905060008151116104f4576040518060200160405280600081525061051f565b806104fe846108fb565b60405160200161050f929190610f1d565b6040516020818303038152906040525b9392505050565b6001600160a01b03918216600090815260056020908152604080832093909416825291909152205460ff1690565b6000818152600260205260408120546001600160a01b03168061029757604051637e27328960e01b81526004810184905260240161038d565b61041c838383600161098e565b6000828152600260205260408120546001600160a01b03908116908316156105c7576105c7818486610a94565b6001600160a01b03811615610605576105e460008560008061098e565b6001600160a01b038116600090815260036020526040902080546000190190555b6001600160a01b03851615610634576001600160a01b0385166000908152600360205260409020805460010190555b60008481526002602052604080822080546001600160a01b0319166001600160a01b0389811691821790925591518793918516917fddf252ad1be2c89b69c2b068fc378daa952ba7f163c4a11628f55a4df523b3ef91a4949350505050565b6001600160a01b0382166106bd57604051633250574960e11b81526000600482015260240161038d565b60006106cb8383600061059a565b90506001600160a01b0381161561041c576040516339e3563760e11b81526000600482015260240161038d565b6000610707600083600061059a565b90506001600160a01b03811661036357604051637e27328960e01b81526004810183905260240161038d565b6001600160a01b03821661076557604051630b61174360e31b81526001600160a01b038316600482015260240161038d565b6001600160a01b03838116600081815260056020908152604080832094871680845294825291829020805460ff191686151590811790915591519182527f17307eab39ab6107e8899845ad3d59bd9653f200f220920489ca2b5937696c31910160405180910390a3505050565b6001600160a01b0383163b156103f157604051630a85bd0160e11b81526001600160a01b0384169063150b7a0290610814903390889087908790600401610f4c565b6020604051808303816000875af192505050801561084f575060408051601f3d908101601f1916820190925261084c91810190610f89565b60015b6108b8573d80801561087d576040519150601f19603f3d011682016040523d82523d6000602084013e610882565b606091505b5080516000036108b057604051633250574960e11b81526001600160a01b038516600482015260240161038d565b805181602001fd5b6001600160e01b03198116630a85bd0160e11b146108f457604051633250574960e11b81526001600160a01b038516600482015260240161038d565b5050505050565b6060600061090883610af8565b600101905060008167ffffffffffffffff81111561092857610928610dbe565b6040519080825280601f01601f191660200182016040528015610952576020820181803683370190505b5090508181016020015b600019016f181899199a1a9b1b9c1cb0b131b232b360811b600a86061a8153600a850494508461095c57509392505050565b80806109a257506001600160a01b03821615155b15610a645760006109b284610554565b90506001600160a01b038316158015906109de5750826001600160a01b0316816001600160a01b031614155b80156109f157506109ef8184610526565b155b15610a1a5760405163a9fbf51f60e01b81526001600160a01b038416600482015260240161038d565b8115610a625783856001600160a01b0316826001600160a01b03167f8c5be1e5ebec7d5bd14f71427d1e84f3dd0314c0f7b2291e5b200ac8c7c3b92560405160405180910390a45b505b5050600090815260046020526040902080546001600160a01b0319166001600160a01b0392909216919091179055565b610a9f838383610bd0565b61041c576001600160a01b038316610acd57604051637e27328960e01b81526004810182905260240161038d565b60405163177e802f60e01b81526001600160a01b03831660048201526024810182905260440161038d565b60008072184f03e93ff9f4daa797ed6e38ed64bf6a1f0160401b8310610b375772184f03e93ff9f4daa797ed6e38ed64bf6a1f0160401b830492506040015b6d04ee2d6d415b85acef81000000008310610b63576d04ee2d6d415b85acef8100000000830492506020015b662386f26fc100008310610b8157662386f26fc10000830492506010015b6305f5e1008310610b99576305f5e100830492506008015b6127108310610bad57612710830492506004015b60648310610bbf576064830492506002015b600a83106102975760010192915050565b60006001600160a01b03831615801590610c2e5750826001600160a01b0316846001600160a01b03161480610c0a5750610c0a8484610526565b80610c2e57506000828152600460205260409020546001600160a01b038481169116145b949350505050565b6001600160e01b03198116811461042a57600080fd5b600060208284031215610c5e57600080fd5b813561051f81610c36565b60005b83811015610c84578181015183820152602001610c6c565b50506000910152565b60008151808452610ca5816020860160208601610c69565b601f01601f19169290920160200192915050565b60208152600061051f6020830184610c8d565b600060208284031215610cde57600080fd5b5035919050565b80356001600160a01b0381168114610cfc57600080fd5b919050565b60008060408385031215610d1457600080fd5b610d1d83610ce5565b946020939093013593505050565b600080600060608486031215610d4057600080fd5b610d4984610ce5565b9250610d5760208501610ce5565b9150604084013590509250925092565b600060208284031215610d7957600080fd5b61051f82610ce5565b60008060408385031215610d9557600080fd5b610d9e83610ce5565b915060208301358015158114610db357600080fd5b809150509250929050565b634e487b7160e01b600052604160045260246000fd5b60008060008060808587031215610dea57600080fd5b610df385610ce5565b9350610e0160208601610ce5565b925060408501359150606085013567ffffffffffffffff80821115610e2557600080fd5b818701915087601f830112610e3957600080fd5b813581811115610e4b57610e4b610dbe565b604051601f8201601f19908116603f01168101908382118183101715610e7357610e73610dbe565b816040528281528a6020848701011115610e8c57600080fd5b82602086016020830137600060208483010152809550505050505092959194509250565b60008060408385031215610ec357600080fd5b610ecc83610ce5565b9150610eda60208401610ce5565b90509250929050565b600181811c90821680610ef757607f821691505b602082108103610f1757634e487b7160e01b600052602260045260246000fd5b50919050565b60008351610f2f818460208801610c69565b835190830190610f43818360208801610c69565b01949350505050565b6001600160a01b0385811682528416602082015260408101839052608060608201819052600090610f7f90830184610c8d565b9695505050505050565b600060208284031215610f9b57600080fd5b815161051f81610c3656fea2646970667358221220b9f2e088d70c269ac7adb508e2b30791f6c17ff0b05c61adfe9ba21836b161df64736f6c63430008180033","linkReferences":{}},"methodIdentifiers":{"approve(address,uint256)":"095ea7b3","balanceOf(address)":"70a08231","burn(uint256)":"42966c68","getApproved(uint256)":"081812fc","isApprovedForAll(address,address)":"e985e9c5","mint(address,uint256)":"40c10f19","name()":"06fdde03","ownerOf(uint256)":"6352211e","safeTransferFrom(address,address,uint256)":"42842e0e","safeTransferFrom(address,address,uint256,bytes)":"b88d4fde","setApprovalForAll(address,bool)":"a22cb465","supportsInterface(bytes4)":"01ffc9a7","symbol()":"95d89b41","tokenURI(uint256)":"c87b56dd","transferFrom(address,address,uint256)":"23b872dd"},"id":32}