{"abi":[{"type":"constructor","inputs":[{"name":"erc721Address","type":"address","internalType":"address"}],"stateMutability":"nonpayable"},{"type":"function","name":"admin","inputs":[],"outputs":[{"name":"","type":"address","internalType":"address"}],"stateMutability":"view"},{"type":"function","name":"entries","inputs":[{"name":"participantHash","type":"bytes32","internalType":"bytes32"}],"outputs":[{"name":"owner","type":"address","internalType":"address"},{"name":"tokenId","type":"uint256","internalType":"uint256"},{"name":"move","type":"uint8","internalType":"enum RPS.Moves"},{"name":"timestamp","type":"uint256","internalType":"uint256"}],"stateMutability":"view"},{"type":"function","name":"executeGame","inputs":[{"name":"_gameSeed","type":"uint256","internalType":"uint256"}],"outputs":[],"stateMutability":"nonpayable"},{"type":"function","name":"gameSeed","inputs":[],"outputs":[{"name":"","type":"uint256","internalType":"uint256"}],"stateMutability":"view"},{"type":"function","name":"getEntry","inputs":[{"name":"participantHash","type":"bytes32","internalType":"bytes32"}],"outputs":[{"name":"","type":"tuple","internalType":"struct RPS.Entry","components":[{"name":"owner","type":"address","internalType":"address"},{"name":"tokenId","type":"uint256","internalType":"uint256"},{"name":"move","type":"uint8","internalType":"enum RPS.Moves"},{"name":"timestamp","type":"uint256","internalType":"uint256"}]}],"stateMutability":"view"},{"type":"function","name":"getParticipantHash","inputs":[{"name":"owner","type":"address","internalType":"address"},{"name":"tokenId","type":"uint256","internalType":"uint256"}],"outputs":[{"name":"","type":"bytes32","internalType":"bytes32"}],"stateMutability":"pure"},{"type":"function","name":"isRegistrationOpen","inputs":[],"outputs":[{"name":"","type":"bool","internalType":"bool"}],"stateMutability":"view"},{"type":"function","name":"participationToken","inputs":[],"outputs":[{"name":"","type":"address","internalType":"contract IERC721"}],"stateMutability":"view"},{"type":"function","name":"register","inputs":[{"name":"tokenId","type":"uint256","internalType":"uint256"},{"name":"move","type":"uint8","internalType":"enum RPS.Moves"}],"outputs":[{"name":"participantHash","type":"bytes32","internalType":"bytes32"}],"stateMutability":"nonpayable"},{"type":"function","name":"registerPlayer","inputs":[{"name":"_player","type":"address","internalType":"address"},{"name":"_tokenId","type":"uint256","internalType":"uint256"},{"name":"_move","type":"uint8","internalType":"enum RPS.Moves"}],"outputs":[{"name":"participantHash","type":"bytes32","internalType":"bytes32"}],"stateMutability":"nonpayable"},{"type":"event","name":"Game","inputs":[{"name":"gameSeed","type":"uint256","indexed":false,"internalType":"uint256"}],"anonymous":false},{"type":"event","name":"HandRegistered","inputs":[{"name":"participantHash","type":"bytes32","indexed":true,"internalType":"bytes32"},{"name":"owner","type":"address","indexed":true,"internalType":"address"},{"name":"tokenId","type":"uint256","indexed":false,"internalType":"uint256"},{"name":"move","type":"uint8","indexed":false,"internalType":"enum RPS.Moves"},{"name":"timestamp","type":"uint256","indexed":false,"internalType":"uint256"}],"anonymous":false},{"type":"error","name":"ALREADY_A_PARTICIPANT","inputs":[]},{"type":"error","name":"GAME_CLOSED","inputs":[]},{"type":"error","name":"NOT_ADMIN","inputs":[]},{"type":"error","name":"NOT_A_PARTICIPANT","inputs":[]}],"bytecode":{"object":"0x608060405234801561001057600080fd5b506040516107bc3803806107bc83398101604081905261002f9161006c565b600280546001600160a01b03191633179055600080546001600160a81b0319166001600160a01b039290921691909117600160a01b17905561009c565b60006020828403121561007e57600080fd5b81516001600160a01b038116811461009557600080fd5b9392505050565b610711806100ab6000396000f3fe608060405234801561001057600080fd5b506004361061009e5760003560e01c80637ab2af2b116100665780637ab2af2b146101645780639a5e4eb414610188578063c76bbdc1146101a8578063f851a440146101bb578063fa5ed38c146101ce57600080fd5b806309ea1baa146100a357806311356184146100bf57806323afeb60146100ea578063267b6922146100fd57806350ed283814610151575b600080fd5b6100ac60015481565b6040519081526020015b60405180910390f35b6000546100d2906001600160a01b031681565b6040516001600160a01b0390911681526020016100b6565b6100ac6100f836600461054f565b6101e3565b61014161010b36600461057b565b600360208190526000918252604090912080546001820154600283015492909301546001600160a01b03909116929160ff169084565b6040516100b694939291906105cc565b6100ac61015f366004610616565b610220565b60005461017890600160a01b900460ff1681565b60405190151581526020016100b6565b61019b61019636600461057b565b610261565b6040516100b69190610652565b6100ac6101b636600461068f565b6102f9565b6002546100d2906001600160a01b031681565b6101e16101dc36600461057b565b610340565b005b60008054600160a01b900460ff1661020e576040516397c0eba360e01b815260040160405180910390fd5b6102193384846103b3565b9392505050565b6002546000906001600160a01b0316331461024e57604051636209c08b60e01b815260040160405180910390fd5b6102598484846103b3565b949350505050565b6040805160808082018352600080835260208084018290528385018290526060840182905285825260038152908490208451928301855280546001600160a01b0316835260018101549183019190915260028082015493949293919284019160ff16908111156102d3576102d3610594565b60028111156102e4576102e4610594565b81526020016003820154815250509050919050565b6040516bffffffffffffffffffffffff19606084901b1660208201526034810182905260009060540160405160208183030381529060405280519060200120905092915050565b6002546001600160a01b0316331461036b57604051636209c08b60e01b815260040160405180910390fd5b6000805460ff60a01b1916905560018190556040518181527f2172ff16eae08fd909cc71c9feb7a6731eac72c99c46d8b59b6e57eab00079729060200160405180910390a150565b60006103bf84846102f9565b6000818152600360205260409020549091506001600160a01b031661040a57600081815260036020526040902080546001600160a01b0319166001600160a01b038616179055610444565b6000818152600360205260409020546001600160a01b0385811691161461044457604051631677269360e31b815260040160405180910390fd5b6040518060800160405280856001600160a01b0316815260200184815260200183600281111561047657610476610594565b815242602091820152600083815260038252604090819020835181546001600160a01b0319166001600160a01b039091161781559183015160018084019190915590830151600280840180549293909260ff19169184908111156104dc576104dc610594565b021790555060608201518160030155905050836001600160a01b0316817f3ea3314dd8adca61ba5ccef601f00167a9a3c43358bad8b897df2519ee6d3a6c85854260405161052c939291906106b9565b60405180910390a39392505050565b80356003811061054a57600080fd5b919050565b6000806040838503121561056257600080fd5b823591506105726020840161053b565b90509250929050565b60006020828403121561058d57600080fd5b5035919050565b634e487b7160e01b600052602160045260246000fd5b600381106105c857634e487b7160e01b600052602160045260246000fd5b9052565b6001600160a01b038516815260208101849052608081016105f060408301856105aa565b82606083015295945050505050565b80356001600160a01b038116811461054a57600080fd5b60008060006060848603121561062b57600080fd5b610634846105ff565b9250602084013591506106496040850161053b565b90509250925092565b81516001600160a01b03168152602080830151908201526040808301516080830191610680908401826105aa565b50606092830151919092015290565b600080604083850312156106a257600080fd5b6106ab836105ff565b946020939093013593505050565b838152606081016106cd60208301856105aa565b82604083015294935050505056fea2646970667358221220d9b68f301ef5393c4bc977c20d46c1e0f464ec4e2738081a5fb5d6cc4fd6619264736f6c63430008180033","linkReferences":{}},"methodIdentifiers":{"admin()":"f851a440","entries(bytes32)":"267b6922","executeGame(uint256)":"fa5ed38c","gameSeed()":"09ea1baa","getEntry(bytes32)":"9a5e4eb4","getParticipantHash(address,uint256)":"c76bbdc1","isRegistrationOpen()":"7ab2af2b","participationToken()":"11356184","register(uint256,uint8)":"23afeb60","registerPlayer(address,uint256,uint8)":"50ed2838"},"id":32}