{"abi":[{"type":"constructor","inputs":[{"name":"erc721Address","type":"address","internalType":"address"}],"stateMutability":"nonpayable"},{"type":"function","name":"admin","inputs":[],"outputs":[{"name":"","type":"address","internalType":"address"}],"stateMutability":"view"},{"type":"function","name":"entries","inputs":[{"name":"_gameNonce","type":"uint256","internalType":"uint256"}],"outputs":[{"name":"_entries","type":"tuple[]","internalType":"struct RPS.Entry[]","components":[{"name":"gameNonce","type":"uint256","internalType":"uint256"},{"name":"timestamp","type":"uint256","internalType":"uint256"},{"name":"owner","type":"address","internalType":"address"},{"name":"tokenId","type":"uint256","internalType":"uint256"},{"name":"move","type":"uint8","internalType":"enum RPS.Moves"}]}],"stateMutability":"view"},{"type":"function","name":"executeGame","inputs":[],"outputs":[],"stateMutability":"nonpayable"},{"type":"function","name":"gameEntries","inputs":[{"name":"gameNonce","type":"uint256","internalType":"uint256"},{"name":"","type":"uint256","internalType":"uint256"}],"outputs":[{"name":"gameNonce","type":"uint256","internalType":"uint256"},{"name":"timestamp","type":"uint256","internalType":"uint256"},{"name":"owner","type":"address","internalType":"address"},{"name":"tokenId","type":"uint256","internalType":"uint256"},{"name":"move","type":"uint8","internalType":"enum RPS.Moves"}],"stateMutability":"view"},{"type":"function","name":"gameNonce","inputs":[],"outputs":[{"name":"","type":"uint256","internalType":"uint256"}],"stateMutability":"view"},{"type":"function","name":"games","inputs":[{"name":"gameNonce","type":"uint256","internalType":"uint256"},{"name":"","type":"uint256","internalType":"uint256"}],"outputs":[{"name":"gameNonce","type":"uint256","internalType":"uint256"},{"name":"timestamp","type":"uint256","internalType":"uint256"},{"name":"owner","type":"address","internalType":"address"},{"name":"tokenId","type":"uint256","internalType":"uint256"},{"name":"move","type":"uint8","internalType":"enum RPS.Moves"}],"stateMutability":"view"},{"type":"function","name":"getParticipantHash","inputs":[{"name":"owner","type":"address","internalType":"address"},{"name":"tokenId","type":"uint256","internalType":"uint256"},{"name":"_gameNonce","type":"uint256","internalType":"uint256"}],"outputs":[{"name":"","type":"bytes32","internalType":"bytes32"}],"stateMutability":"pure"},{"type":"function","name":"openRegistration","inputs":[],"outputs":[],"stateMutability":"nonpayable"},{"type":"function","name":"participants","inputs":[{"name":"participantHash","type":"bytes32","internalType":"bytes32"}],"outputs":[{"name":"owner","type":"address","internalType":"address"}],"stateMutability":"view"},{"type":"function","name":"participationToken","inputs":[],"outputs":[{"name":"","type":"address","internalType":"contract IERC721"}],"stateMutability":"view"},{"type":"function","name":"paused","inputs":[],"outputs":[{"name":"","type":"bool","internalType":"bool"}],"stateMutability":"view"},{"type":"function","name":"register","inputs":[{"name":"tokenId","type":"uint256","internalType":"uint256"},{"name":"move","type":"uint8","internalType":"enum RPS.Moves"}],"outputs":[],"stateMutability":"nonpayable"},{"type":"function","name":"togglePause","inputs":[],"outputs":[],"stateMutability":"nonpayable"},{"type":"event","name":"Game","inputs":[{"name":"gameNonce","type":"uint256","indexed":true,"internalType":"uint256"},{"name":"participants","type":"tuple[]","indexed":false,"internalType":"struct RPS.Entry[]","components":[{"name":"gameNonce","type":"uint256","internalType":"uint256"},{"name":"timestamp","type":"uint256","internalType":"uint256"},{"name":"owner","type":"address","internalType":"address"},{"name":"tokenId","type":"uint256","internalType":"uint256"},{"name":"move","type":"uint8","internalType":"enum RPS.Moves"}]}],"anonymous":false},{"type":"event","name":"HandRegistered","inputs":[{"name":"participantHash","type":"bytes32","indexed":true,"internalType":"bytes32"},{"name":"owner","type":"address","indexed":true,"internalType":"address"},{"name":"tokenId","type":"uint256","indexed":false,"internalType":"uint256"},{"name":"gameNonce","type":"uint256","indexed":false,"internalType":"uint256"},{"name":"move","type":"uint8","indexed":false,"internalType":"enum RPS.Moves"}],"anonymous":false},{"type":"event","name":"Paused","inputs":[{"name":"account","type":"address","indexed":false,"internalType":"address"}],"anonymous":false},{"type":"event","name":"Unpaused","inputs":[{"name":"account","type":"address","indexed":false,"internalType":"address"}],"anonymous":false},{"type":"error","name":"ALREADY_A_PARTICIPANT","inputs":[]},{"type":"error","name":"EnforcedPause","inputs":[]},{"type":"error","name":"ExpectedPause","inputs":[]},{"type":"error","name":"NOT_A_PARTICIPANT","inputs":[]}],"bytecode":{"object":"0x608060405234801561001057600080fd5b5060405161098838038061098883398101604081905261002f916100f5565b60008054600380546001600160a01b031916331790556001600160a01b038316610100026001600160a81b0319909116179055600160045561006f610075565b50610125565b61007d6100cf565b6000805460ff191660011790557f62e78cea01bee320cd4e420270b5ea74000d11b0c9f74754ebdbfc544b05a2586100b23390565b6040516001600160a01b03909116815260200160405180910390a1565b60005460ff16156100f35760405163d93c066560e01b815260040160405180910390fd5b565b60006020828403121561010757600080fd5b81516001600160a01b038116811461011e57600080fd5b9392505050565b610854806101346000396000f3fe608060405234801561001057600080fd5b50600436106100cf5760003560e01c8063b30906d41161008c578063d06e4ee711610066578063d06e4ee7146101af578063e5539406146101b7578063f851a440146101db578063fb8378f6146101ee57600080fd5b8063b30906d414610174578063c4ae316814610194578063ceb7cde01461019c57600080fd5b806311356184146100d457806323afeb60146101095780633cca06341461011c5780635c975abb1461011e578063653e0f7f1461013457806393ffb1001461015d575b600080fd5b6000546100ec9061010090046001600160a01b031681565b6040516001600160a01b0390911681526020015b60405180910390f35b61011c610117366004610655565b610201565b005b60005460ff166040519015158152602001610100565b6100ec610142366004610689565b6002602052600090815260409020546001600160a01b031681565b61016660045481565b604051908152602001610100565b610187610182366004610689565b6103c2565b60405161010091906106da565b61011c61049c565b6101666101aa36600461075d565b6104b6565b61011c6104ae565b6101ca6101c536600461079e565b610505565b6040516101009594939291906107c0565b6003546100ec906001600160a01b031681565b6101ca6101fc36600461079e565b61055f565b61020961057b565b600061021833846004546104b6565b6000818152600260205260409020549091506001600160a01b031661025a57600081815260026020526040902080546001600160a01b03191633179055610291565b6000818152600260205260409020546001600160a01b0316331461029157604051631677269360e31b815260040160405180910390fd5b6001600060045481526020019081526020016000206040518060a001604052806004548152602001428152602001336001600160a01b031681526020018581526020018460028111156102e6576102e66106a2565b90528154600180820184556000938452602093849020835160059093020191825592820151818401556040820151600280830180546001600160a01b0319166001600160a01b0390931692909217909155606083015160038301556080830151600483018054949593949193909260ff1990921691849081111561036c5761036c6106a2565b02179055505050336001600160a01b0316817fdc804ecc4c4863b1d9873600856f9205539fb671ce1f8d3047479203be2659d785600454866040516103b3939291906107fb565b60405180910390a3505050565b565b606060016000838152602001908152602001600020805480602002602001604051908101604052809291908181526020016000905b828210156104915760008481526020908190206040805160a08101825260058602909201805483526001810154938301939093526002808401546001600160a01b031691830191909152600383015460608301526004830154919291608084019160ff9091169081111561046d5761046d6106a2565b600281111561047e5761047e6106a2565b81525050815260200190600101906103f7565b505050509050919050565b60005460ff166104ae576103c061059f565b6103c06105f9565b6040516bffffffffffffffffffffffff19606085901b16602082015260348101839052605481018290526000906074016040516020818303038152906040528051906020012090509392505050565b6005602052816000526040600020818154811061052157600080fd5b6000918252602090912060059091020180546001820154600283015460038401546004909401549295509093506001600160a01b0316919060ff1685565b6001602052816000526040600020818154811061052157600080fd5b60005460ff16156103c05760405163d93c066560e01b815260040160405180910390fd5b6105a761057b565b6000805460ff191660011790557f62e78cea01bee320cd4e420270b5ea74000d11b0c9f74754ebdbfc544b05a2586105dc3390565b6040516001600160a01b03909116815260200160405180910390a1565b610601610632565b6000805460ff191690557f5db9ee0a495bf2e6ff9c91a7834c1ba4fdd244a5e8aa4e537bd38aeae4b073aa336105dc565b60005460ff166103c057604051638dfc202b60e01b815260040160405180910390fd5b6000806040838503121561066857600080fd5b8235915060208301356003811061067e57600080fd5b809150509250929050565b60006020828403121561069b57600080fd5b5035919050565b634e487b7160e01b600052602160045260246000fd5b600381106106d657634e487b7160e01b600052602160045260246000fd5b9052565b602080825282518282018190526000919060409081850190868401855b82811015610750578151805185528681015187860152858101516001600160a01b031686860152606080820151908601526080908101519061073b818701836106b8565b505060a09390930192908501906001016106f7565b5091979650505050505050565b60008060006060848603121561077257600080fd5b83356001600160a01b038116811461078957600080fd5b95602085013595506040909401359392505050565b600080604083850312156107b157600080fd5b50508035926020909101359150565b858152602081018590526001600160a01b03841660408201526060810183905260a081016107f160808301846106b8565b9695505050505050565b838152602081018390526060810161081660408301846106b8565b94935050505056fea2646970667358221220571a0e44212957d1a50985715204a57fcd7fae39c2cd8852be4833d88454e4f064736f6c63430008180033","linkReferences":{}},"methodIdentifiers":{"admin()":"f851a440","entries(uint256)":"b30906d4","executeGame()":"3cca0634","gameEntries(uint256,uint256)":"fb8378f6","gameNonce()":"93ffb100","games(uint256,uint256)":"e5539406","getParticipantHash(address,uint256,uint256)":"ceb7cde0","openRegistration()":"d06e4ee7","participants(bytes32)":"653e0f7f","participationToken()":"11356184","paused()":"5c975abb","register(uint256,uint8)":"23afeb60","togglePause()":"c4ae3168"},"id":33}