{"abi":[{"type":"constructor","inputs":[{"name":"erc721Address","type":"address","internalType":"address"}],"stateMutability":"nonpayable"},{"type":"function","name":"admin","inputs":[],"outputs":[{"name":"","type":"address","internalType":"address"}],"stateMutability":"view"},{"type":"function","name":"entries","inputs":[{"name":"participantHash","type":"bytes32","internalType":"bytes32"}],"outputs":[{"name":"owner","type":"address","internalType":"address"},{"name":"tokenId","type":"uint256","internalType":"uint256"},{"name":"move","type":"uint8","internalType":"enum RPS.Moves"},{"name":"timestamp","type":"uint256","internalType":"uint256"}],"stateMutability":"view"},{"type":"function","name":"executeGame","inputs":[{"name":"_gameSeed","type":"uint256","internalType":"uint256"}],"outputs":[],"stateMutability":"nonpayable"},{"type":"function","name":"gameSeed","inputs":[],"outputs":[{"name":"","type":"uint256","internalType":"uint256"}],"stateMutability":"view"},{"type":"function","name":"getEntry","inputs":[{"name":"participantHash","type":"bytes32","internalType":"bytes32"}],"outputs":[{"name":"","type":"tuple","internalType":"struct RPS.Entry","components":[{"name":"owner","type":"address","internalType":"address"},{"name":"tokenId","type":"uint256","internalType":"uint256"},{"name":"move","type":"uint8","internalType":"enum RPS.Moves"},{"name":"timestamp","type":"uint256","internalType":"uint256"}]}],"stateMutability":"view"},{"type":"function","name":"getParticipantHash","inputs":[{"name":"owner","type":"address","internalType":"address"},{"name":"tokenId","type":"uint256","internalType":"uint256"}],"outputs":[{"name":"","type":"bytes32","internalType":"bytes32"}],"stateMutability":"pure"},{"type":"function","name":"isRegistrationOpen","inputs":[],"outputs":[{"name":"","type":"bool","internalType":"bool"}],"stateMutability":"view"},{"type":"function","name":"participants","inputs":[{"name":"participantHash","type":"bytes32","internalType":"bytes32"}],"outputs":[{"name":"owner","type":"address","internalType":"address"}],"stateMutability":"view"},{"type":"function","name":"participationToken","inputs":[],"outputs":[{"name":"","type":"address","internalType":"contract IERC721"}],"stateMutability":"view"},{"type":"function","name":"register","inputs":[{"name":"tokenId","type":"uint256","internalType":"uint256"},{"name":"move","type":"uint8","internalType":"enum RPS.Moves"}],"outputs":[{"name":"participantHash","type":"bytes32","internalType":"bytes32"}],"stateMutability":"nonpayable"},{"type":"function","name":"registerPlayer","inputs":[{"name":"_player","type":"address","internalType":"address"},{"name":"_tokenId","type":"uint256","internalType":"uint256"},{"name":"_move","type":"uint8","internalType":"enum RPS.Moves"}],"outputs":[{"name":"participantHash","type":"bytes32","internalType":"bytes32"}],"stateMutability":"nonpayable"},{"type":"event","name":"Game","inputs":[{"name":"gameSeed","type":"uint256","indexed":false,"internalType":"uint256"}],"anonymous":false},{"type":"event","name":"HandRegistered","inputs":[{"name":"participantHash","type":"bytes32","indexed":true,"internalType":"bytes32"},{"name":"owner","type":"address","indexed":true,"internalType":"address"},{"name":"tokenId","type":"uint256","indexed":false,"internalType":"uint256"},{"name":"move","type":"uint8","indexed":false,"internalType":"enum RPS.Moves"},{"name":"timestamp","type":"uint256","indexed":false,"internalType":"uint256"}],"anonymous":false},{"type":"error","name":"ALREADY_A_PARTICIPANT","inputs":[]},{"type":"error","name":"GAME_CLOSED","inputs":[]},{"type":"error","name":"NOT_ADMIN","inputs":[]},{"type":"error","name":"NOT_A_PARTICIPANT","inputs":[]}],"bytecode":{"object":"0x608060405234801561001057600080fd5b506040516107e53803806107e583398101604081905261002f9161006f565b60048054336001600160a01b031991821617909155600080549091166001600160a01b03929092169190911790556002805460ff1916600117905561009f565b60006020828403121561008157600080fd5b81516001600160a01b038116811461009857600080fd5b9392505050565b610737806100ae6000396000f3fe608060405234801561001057600080fd5b50600436106100a95760003560e01c8063653e0f7f11610071578063653e0f7f146101705780637ab2af2b146101995780639a5e4eb4146101b6578063c76bbdc1146101d6578063f851a440146101e9578063fa5ed38c146101fc57600080fd5b806309ea1baa146100ae57806311356184146100ca57806323afeb60146100f5578063267b69221461010857806350ed28381461015d575b600080fd5b6100b760035481565b6040519081526020015b60405180910390f35b6000546100dd906001600160a01b031681565b6040516001600160a01b0390911681526020016100c1565b6100b7610103366004610575565b610211565b61014d6101163660046105a1565b60056020526000908152604090208054600182015460028301546003909301546001600160a01b0390921692909160ff9091169084565b6040516100c194939291906105f2565b6100b761016b36600461063c565b610249565b6100dd61017e3660046105a1565b6001602052600090815260409020546001600160a01b031681565b6002546101a69060ff1681565b60405190151581526020016100c1565b6101c96101c43660046105a1565b61028a565b6040516100c19190610678565b6100b76101e43660046106b5565b610322565b6004546100dd906001600160a01b031681565b61020f61020a3660046105a1565b610369565b005b60025460009060ff16610237576040516397c0eba360e01b815260040160405180910390fd5b6102423384846103d9565b9392505050565b6004546000906001600160a01b0316331461027757604051636209c08b60e01b815260040160405180910390fd5b6102828484846103d9565b949350505050565b6040805160808082018352600080835260208084018290528385018290526060840182905285825260058152908490208451928301855280546001600160a01b0316835260018101549183019190915260028082015493949293919284019160ff16908111156102fc576102fc6105ba565b600281111561030d5761030d6105ba565b81526020016003820154815250509050919050565b6040516bffffffffffffffffffffffff19606084901b1660208201526034810182905260009060540160405160208183030381529060405280519060200120905092915050565b6004546001600160a01b0316331461039457604051636209c08b60e01b815260040160405180910390fd5b6002805460ff1916905560038190556040518181527f2172ff16eae08fd909cc71c9feb7a6731eac72c99c46d8b59b6e57eab00079729060200160405180910390a150565b60006103e58484610322565b6000818152600160205260409020549091506001600160a01b031661043057600081815260016020526040902080546001600160a01b0319166001600160a01b03861617905561046a565b6000818152600160205260409020546001600160a01b0385811691161461046a57604051631677269360e31b815260040160405180910390fd5b6040518060800160405280856001600160a01b0316815260200184815260200183600281111561049c5761049c6105ba565b815242602091820152600083815260058252604090819020835181546001600160a01b0319166001600160a01b039091161781559183015160018084019190915590830151600280840180549293909260ff1916918490811115610502576105026105ba565b021790555060608201518160030155905050836001600160a01b0316817f3ea3314dd8adca61ba5ccef601f00167a9a3c43358bad8b897df2519ee6d3a6c858542604051610552939291906106df565b60405180910390a39392505050565b80356003811061057057600080fd5b919050565b6000806040838503121561058857600080fd5b8235915061059860208401610561565b90509250929050565b6000602082840312156105b357600080fd5b5035919050565b634e487b7160e01b600052602160045260246000fd5b600381106105ee57634e487b7160e01b600052602160045260246000fd5b9052565b6001600160a01b0385168152602081018490526080810161061660408301856105d0565b82606083015295945050505050565b80356001600160a01b038116811461057057600080fd5b60008060006060848603121561065157600080fd5b61065a84610625565b92506020840135915061066f60408501610561565b90509250925092565b81516001600160a01b031681526020808301519082015260408083015160808301916106a6908401826105d0565b50606092830151919092015290565b600080604083850312156106c857600080fd5b6106d183610625565b946020939093013593505050565b838152606081016106f360208301856105d0565b82604083015294935050505056fea2646970667358221220ed59161373dc83d5654e67461e04632496a67a2a4f525b3deab0b774c1e2b06064736f6c63430008180033","linkReferences":{}},"methodIdentifiers":{"admin()":"f851a440","entries(bytes32)":"267b6922","executeGame(uint256)":"fa5ed38c","gameSeed()":"09ea1baa","getEntry(bytes32)":"9a5e4eb4","getParticipantHash(address,uint256)":"c76bbdc1","isRegistrationOpen()":"7ab2af2b","participants(bytes32)":"653e0f7f","participationToken()":"11356184","register(uint256,uint8)":"23afeb60","registerPlayer(address,uint256,uint8)":"50ed2838"},"id":32}